:020000040800F2
:1000000000800020A9160008B1050008B30500080B
:1000100000000000000000000000000000000000E0
:10002000000000000000000000000000B50500080E
:100030000000000000000000B7050008B905000836
:10004000F9160008F9160008F9160008F916000854
:10005000F9160008F9160008F9160008F916000844
:10006000F9160008F9160008F9160008F916000834
:10007000F9160008F9160008F9160008C10500086D
:10008000F9160008F9160008F9160008F916000814
:10009000F9160008F9160008F9160008F916000804
:1000A000F9160008F9160008F9160008F9160008F4
:0C00B000F9160008F9160008F9160008FF
:1000BC000448054B10B5834203D0044B002B00D0F1
:1000CC00984710BD0C0000200C0000200000000020
:1000DC0006480749091A8B10C90FC91810B54910E1
:1000EC0003D0044B002B00D0984710BD0C0000200F
:1000FC000C0000200000000010B5074C2378002BEA
:10010C0009D1FFF7D5FF054B002B02D0044800E0C6
:10011C0000BF0123237010BD0C0000200000000064
:10012C00FC160008054B10B5002B03D004490548FC
:10013C0000E000BFFFF7CCFF10BDC0460000000080
:10014C0010000020FC16000870B50D4B0D4D5E1B09
:10015C00B610AB4205D0002408CD01349847A64216
:10016C00FAD801F0C5FA084B084D5E1BB610AB422D
:10017C0005D0002408CD01349847A642FAD870BDAA
:10018C0044170008441700084817000844170008D3
:10019C00F0B50500830749D0541E002A45D0030052
:1001AC000326CAB202E00135013C3ED301332A706A
:1001BC003342F8D1032C30D9FF220A401502AD1876
:1001CC002A04AD180F2C34D92700103F3F093E01EB
:1001DC00B4461E001A0010366644156055609560D2
:1001EC00D56010329642F8D101373F01DB190F2749
:1001FC000C22274022403C00002A0ED03E1FB6089D
:10020C00B400A4461A001C1D644420C2A242FCD1B6
:10021C0003240136B6009B193C40002C05D0C9B212
:10022C001C19197001339C42FBD1F0BD0300140062
:10023C00C0E72700E2E7C046002243088B4274D394
:10024C0003098B425FD3030A8B4244D3030B8B42CB
:10025C0028D3030C8B420DD3FF22090212BA030CD4
:10026C008B4202D31212090265D0030B8B4219D3B5
:10027C0000E0090AC30B8B4201D3CB03C01A5241D5
:10028C00830B8B4201D38B03C01A5241430B8B421D
:10029C0001D34B03C01A5241030B8B4201D30B0306
:1002AC00C01A5241C30A8B4201D3CB02C01A52412D
:1002BC00830A8B4201D38B02C01A5241430A8B42F0
:1002CC0001D34B02C01A5241030A8B4201D30B02D9
:1002DC00C01A5241CDD2C3098B4201D3CB01C01AF3
:1002EC00524183098B4201D38B01C01A52414309FD
:1002FC008B4201D34B01C01A524103098B4201D3EB
:10030C000B01C01A5241C3088B4201D3CB00C01A57
:10031C00524183088B4201D38B00C01A52414308CF
:10032C008B4201D34B00C01A5241411A00D20146F4
:10033C00524110467047FFE701B5002000F006F867
:10034C0002BDC0460029F7D076E770477047C0461B
:10035C0070B588B01422002103A8FFF719FF224BB7
:10036C005A698021C9030A435A615A690A400092AA
:10037C00009A5A69802189020A435A615A690A40D3
:10038C000192019A5A698021C9020A435A615B6938
:10039C000B400293029B154E00220121300000F00D
:1003AC00C0FE702303930024049405949025ED055E
:1003BC0003A9280000F0E2FD0123039304930594A4
:1003CC00069403A9300000F0D9FD80235B00039351
:1003DC00FE3B049305940694079303A9280000F0B0
:1003EC00CDFD08B070BDC0460010024000040048AE
:1003FC0010B5902000228021C00500F092FE10BDA7
:10040C0072B6FEE700B587B01022002102A8FFF7F4
:10041C00BFFE082200216846FFF7BAFE144880236D
:10042C00DB050360134B436000238360124AC260F8
:10043C000361836101F03CF8002813D180235B0138
:10044C0002930B4802A901F06BF800280CD1002391
:10045C00009301930648694601F0E6F8002805D19F
:10046C0007B000BDFFF7CCFFFFF7CAFFFFF7C8FFCF
:10047C0028000020E7030000FF76010010B50B48B0
:10048C000B4B03601023436000238360C360036144
:10049C004361037643768376C3760377437700F024
:1004AC00FBF8002800D110BDFFF7AAFF7000002058
:1004BC000064004000B593B03422002105A8FFF77A
:1004CC0067FE1022002101A8FFF762FE202305938E
:1004DC001F3B0D9305A800F087F900280ED10723C8
:1004EC000193043B0293002303930493012101A87D
:1004FC0000F058FC002803D113B000BDFFF780FFBB
:10050C00FFF77EFFF8B500F017FDFFF7D3FFFFF7FD
:10051C001FFFFFF777FFFFF7B1FF204800F096FEB3
:10052C009024E4051021200000F0F4FD202120008F
:10053C0000F0F0FD4021200000F0ECFD0122012133
:10054C00174800F0EEFD002704E0002201211448BA
:10055C0000F0E7FD9025ED051021280000F0DAFDF4
:10056C0004002021280000F0D5FD060040212800C1
:10057C0000F0D0FD002CEDD0002EEBD00028E9D0FF
:10058C00002FE2D1054800F061FE9020012280216D
:10059C00C00500F0C6FD0137D7E7C0462800002093
:1005AC0000040048FEE7FEE77047704710B500F006
:1005BC00D3FC10BD10B5024800F082FE10BDC04641
:1005CC002800002082B00A4B9969012211439961DD
:1005DC0099690A400092009ADA69802149050A4318
:1005EC00DA61DB690B400193019B02B07047C04696
:1005FC000010024010B588B004001422002103A89A
:10060C00FFF7C6FD2268134B9A4201D008B010BD0B
:10061C00114BDA69802189040A43DA61DA690A40EC
:10062C000192019A5A69802189020A435A615B69D5
:10063C000B400293029BC0235B01039302230493A0
:10064C000133069301330793902003A9C00500F0F2
:10065C0095FCDBE7006400400010024000B583B05D
:10066C0002688023DB059A4201D003B000BD094A21
:10067C00D16901231943D161D26913400193019BC4
:10068C00002200210F2000F09FFD0F2000F0A0FDA4
:10069C00EBE7C0460010024070B5041E00D1A0E08C
:1006AC002023C35C002B1AD02268136801210B4352
:1006BC00136000F05DFC050022685368DB0711D461
:1006CC0000F056FC401B0A28F6D9626A80239B0274
:1006DC001343636220230522E254012070BDFFF70F
:1006EC0089FFE1E7136802218B43136000F040FCA3
:1006FC000500226853689B070ED500F039FC401B9F
:10070C000A28F6D9626A80239B0213436362202372
:10071C000522E2540120E1E7237E012B3ED0136831
:10072C0080218B431360637E012B3CD022681368BD
:10073C0040218B431360A37E012B3AD022681368AF
:10074C0020218B431360E37E012B38D02268136881
:10075C0010210B431360237F012B36D022681368C2
:10076C0008218B431360637F012B34D022681368FC
:10077C0004218B431360A368E2681343226913437B
:10078C00626913436268013A21681343CB61002309
:10079C00636220330122E25400209FE7136880211A
:1007AC000B431360BFE72268136840210B431360AF
:1007BC00C1E72268136820210B431360C3E722684A
:1007CC00136810218B431360C5E722681368082156
:1007DC000B431360C7E72268136804210B431360B3
:1007EC00C9E701207AE7000070B582B0041E00D181
:1007FC007FE20368DB072BD5B34B5A680C231340FD
:10080C00042B1DD0B04B5A680C231340082B0ED070
:10081C006368012B41D0002B56D1AB4B1A68AB4906
:10082C000A401A601A68AA490A401A603BE0A64BB3
:10083C005B68C02252021340802252029342E7D1DD
:10084C00A14B1B689B0303D56368002B00D153E2BB
:10085C0023689B0777D59C4B5B680C221A4262D0AD
:10086C00994B5A680C231340082B53D0E368002B88
:10087C0000D18AE0944A136801210B43136000F005
:10088C0077FB0500904B1B689B0775D400F070FB41
:10089C00401B0228F6D903202CE28B4A11688023D6
:1008AC005B020B4313606368002B25D000F060FBE8
:1008BC000500854B1B689B03CAD400F059FB401BF9
:1008CC006428F6D9032015E2052B09D07E4B1A6853
:1008DC007E490A401A601A687D490A401A60E2E7AC
:1008EC00794B19688022D2020A431A601968802257
:1008FC0052020A431A60D6E700F03AFB0500724B2D
:10090C001B689B03A4D500F033FB401B6428F6D96D
:10091C000320EFE16C4B5B68C02252021340802233
:10092C0012029342A2D1684B1B689B0703D5E36864
:10093C00012B00D0E2E164490B68F8229343226951
:10094C00D20013430B6023681B0744D5E369002BCB
:10095C002ED05D4A536A01210B43536200F008FB11
:10096C000500594B5B6A9B0735D400F001FB401B1B
:10097C000228F6D90320BDE153490B68F8229343B2
:10098C002269D20013430B60DDE74F4A1368012143
:10099C008B43136000F0ECFA05004B4B1B689B0774
:1009AC00D1D500F0E5FA401B0228F6D90320A1E1CD
:1009BC00454A536A01218B43536200F0D9FA050072
:1009CC00414B5B6A9B0706D500F0D2FA401B02280C
:1009DC00F6D903208EE123685B0700D480E03A4B04
:1009EC00DB69DB001DD4384BDA69802149050A43E9
:1009FC00DA61DB690B400193019B0125354B1B68C8
:100A0C00DB0510D5A368012B21D0002B36D12E4B42
:100A1C001A6A01218A431A621A6A03318A431A62DA
:100A2C001AE00025EAE72B4A116880235B000B4390
:100A3C00136000F09DFA0600264B1B68DB05E1D421
:100A4C0000F096FA801B6428F6D9032052E11E4A66
:100A5C00136A01210B431362A368002B24D000F00E
:100A6C0087FA0600184B1B6A9B0737D400F080FAF4
:100A7C00801B194B9842F5D903203BE1052B09D07B
:100A8C00114B1A6A01218A431A621A6A03318A438A
:100A9C001A62E1E70C4B1A6A04210A431A621A6AB9
:100AAC0003390A431A62D7E700F062FA0600064BD4
:100ABC001B6A9B0712D500F05BFA801B064B984211
:100ACC00F5D9032016E1C04600100240FFFFFEFFDF
:100ADC00FFFFFBFF0070004088130000012D39D090
:100AEC002368DB0610D56369012B39D0053357D148
:100AFC00894A536B04218B435363536BF4318B43FF
:100B0C00A169C9000B43536323689B066ED5824BC6
:100B1C005A680C2313400C2B60D07F4B5A680C2363
:100B2C001340082B53D0236A002B7ED07A4A516B8A
:100B3C0080235B020B43536300F01AFA0500764BDB
:100B4C005B6B9B0352D400F013FA401B0228F6D9BE
:100B5C000320CFE0704AD36970490B40D361BFE7E3
:100B6C006D4B5A6B04210A435A635A6B03390A437F
:100B7C005A6300F0FDF90500674B5B6B9B0706D4CD
:100B8C0000F0F6F9401B0228F6D90320B2E06249C6
:100B9C004B6BF8229343A269D20013434B63B3E728
:100BAC005D4B5A6B04210A435A635A6B03398A43CF
:100BBC005A6300F0DDF90500574B5B6B9B07A3D51F
:100BCC0000F0D6F9401B0228F6D9032092E0524BD4
:100BDC005B68C022520213409342A4D14E4B5B6B14
:100BEC009B0303D5236A012B00D089E0636A002B99
:100BFC0000D187E0484A51680C220A40082A60D08C
:100C0C00022B25D0444A136845490B40136000F071
:100C1C00AFF90400404B1B689B0150D500F0A8F9BC
:100C2C00001B0228F6D9032064E03B4A536B3D4974
:100C3C000B40536300F09CF90500374B5B6B9B0337
:100C4C00D4D500F095F9401B0228F6D9032051E0C9
:100C5C00314A136832490B40136000F089F90500E2
:100C6C002D4B1B689B0106D500F082F9401B022816
:100C7C00F6D903203EE0284BDA6A0F218A43216B18
:100C8C000A43DA625A6828490A40E16AA06A0143B9
:100C9C000A435A601968802252040A431A6000F011
:100CAC0067F904001C4B1B689B0106D400F060F92B
:100CBC00001B0228F6D903201CE000201AE00020BB
:100CCC0018E0012B20D0144B5A68D86AC0235B0261
:100CDC001340A16A8B4219D10F230340216B8B4225
:100CEC0016D1F0239B031A40E36A9A4212D10020DA
:100CFC0000E0012002B070BD0120FBE70120F9E704
:100D0C000120F7E70020F5E70120F3E70120F1E7E8
:100D1C000120EFE70120EDE700100240FFFFFFEF9D
:100D2C00FFFFFFFEFFFFFEFFFF7FC2FF10B5184B5A
:100D3C005A680C231340082B03D00C2B25D11548D3
:100D4C0010BD910C0F2319401348445C1049C96A1B
:100D5C000B401249C95CC0235B021A4080235B0222
:100D6C009A4208D0C0235B029A4209D00C48FFF784
:100D7C0063FA6043E4E70A48FFF75EFA6043DFE793
:100D8C000448FFF759FA6043DAE70548D8E7C0464C
:100D9C0000100240006CDC02241700081417000835
:100DAC0000127A0070B504000D00002800D186E016
:100DBC00474B1A68012313408B420AD244490B68F3
:100DCC00012293432B430B600B681A40AA4200D0BC
:100DDC0077E023689A070ED55B0705D53D4A516825
:100DEC00E023DB000B4353603A4A5368F0218B43FA
:100DFC00A1680B4353602368DB0735D56368012B6F
:100E0C0009D0022B24D0032B28D0324A1268920727
:100E1C0005D4012052E02F4A1268920353D52D4974
:100E2C004A680320824313434B6000F0A1F806008C
:100E3C00284B5B680C221A4063689B009A4213D0C3
:100E4C0000F096F8801B244B9842F1D9032035E032
:100E5C00204A12689201E2D401202FE01D4A526B05
:100E6C009203DCD4012029E0194B1A6801231340AA
:100E7C00AB4209D916490B68012293432B430B60F3
:100E8C000B681A40AA4220D123685B0706D5114A89
:100E9C00536812490B40E1680B435360FFF746FF60
:100EAC000C4B5A6812090F2313400D4AD35CD840DF
:100EBC000C4B1860032000F017F8002070BD0120C7
:100ECC00FCE70120FAE70120F8E70120F6E7C0462D
:100EDC00002002400010024088130000FFF8FFFFC2
:100EEC00341700080800002010B504000F4B1978C7
:100EFC00FA208000FFF7A0F901000D4B1868FFF7EE
:100F0C009BF900F071F900280DD1032C01D90120B7
:100F1C000AE0013000222100404200F055F9054B57
:100F2C001C60002000E0012010BDC0460000002025
:100F3C00080000200400002010B5064A1368102198
:100F4C000B4313600320FFF7CFFFFFF73BFB0020A1
:100F5C0010BDC04600200240034A1168034B1B78A9
:100F6C005B1813607047C0469800002000000020FA
:100F7C00014B18687047C04698000020F0B583B04C
:100F8C00002356E086685F000324BC40A643CC686F
:100F9C00BC4034438460446894434E683609012253
:100FAC0032409A402243426053E0DE080836B600D5
:100FBC00375805321A4092000F249440A7430C690D
:100FCC00944022003A43325056E0042600E00026BA
:100FDC00A64034003C4302329200474E9451474A9B
:100FEC009768EA433E00AE434C68E40201D53E00EC
:100FFC002E43424CA660E7683E0016404C68A402A3
:10100C0001D53E002E433D4CE66067683E0016401D
:10101C004C68A40301D53E002E43384C666026680C
:10102C0032404C68E40301D52A003243334C226031
:10103C0001330C682200DA405BD001229A40250073
:10104C0015401442F4D04E6803243440013C012C6A
:10105C0098D94C6803222240032A08D0C4685E0049
:10106C000322B24094438A68B2402243C2604C6867
:10107C0003222240022A98D004685E000322170043
:10108C00B740BC434F683A40B240224302604C68C0
:10109C00C02292021442CBD0194CA66901221643ED
:1010AC00A661A46922400192019A9A08941CA4009A
:1010BC00114EA75903241C40A4000F26A640B74389
:1010CC009026F605B04282D00E4EB0420BD00E4E9A
:1010DC00B0420AD00D4EB04209D00D4EB04200D1F4
:1010EC0073E7052674E7012672E7022670E70326EC
:1010FC006EE703B0F0BDC0460000014000040140A3
:10110C00001002400004004800080048000C004891
:10111C000010004803690B4201D0012070470020E9
:10112C00FCE7002A01D0816170478162FCE7000076
:10113C0070B5002811DB8308134DC0339B005C593C
:10114C0003221040C000FC3216008640B4438901D3
:10115C000A40824022435A5170BD0F230340083B82
:10116C009B0806339B00094A944663445C6803223F
:10117C001040C000FC3215008540AC4389010A4088
:10118C00824022435A60E7E700E100E000ED00E016
:10119C00013880235B0498420FD2094A50600948F9
:1011AC00036A1B021B0AC02109060B4303620023BE
:1011BC00936007331360002070470120FCE7C046A2
:1011CC0010E000E000ED00E010B5FFF7B1FF10BD3E
:1011DC00002805DB1F22024001239340014A1360C3
:1011EC007047C04600E100E010B5FFF7D1FF10BD1D
:1011FC0030B5036A046A0125AC4304628469EF3597
:10120C00AC43120122430A24A3430B4382610362C1
:10121C0030BD000030B5036A046A1025AC4304628B
:10122C008469054D2C4012032243A024A3430901D9
:10123C0019438261016230BDFF0FFFFF836870228A
:10124C0093430B43693A1343836070473D23C35C5C
:10125C00012B26D13C330222C2540268D3680121EF
:10126C000B43D3600368114A93420FD08022D205FE
:10127C0093420BD00E4A934208D00E4A934205D0AB
:10128C001A6801210A431A6000200BE099680722B2
:10129C000A40062A07D01A6801210A431A60002066
:1012AC0000E0012070470020FCE7C046002C014004
:1012BC000004004000400140704770477047704781
:1012CC0070B504000368DE681D69AA070ED5B20765
:1012DC000CD5032252421A610123037703689B69E0
:1012EC009B0751D0FFF7E9FF002323776B0712D53B
:1012FC00730710D52368052252421A610223237703
:10130C0023689A69C0239B001A4243D02000FFF740
:10131C00D4FF002323772B0710D533070ED5236872
:10132C00092252421A61042323772368DB699B0745
:10133C0037D02000FFF7C1FF00232377EB0612D52F
:10134C00F30610D52368112252421A610823237721
:10135C002368DA69C0239B001A4229D02000FFF7CA
:10136C00ACFF00232377EB0701D5F30727D42B061B
:10137C0001D533062BD46B0601D573062FD4AD06DD
:10138C0001D5B60633D470BDFFF796FF2000FFF7EA
:10139C0095FFA9E72000FFF78FFF2000FFF78EFFD6
:1013AC00B7E72000FFF788FF2000FFF787FFC3E7B0
:1013BC002000FFF781FF2000FFF780FFD1E72368B3
:1013CC00022252421A612000FFF712F8CFE723687D
:1013DC00812252421A61200000F05DF9CBE72368AC
:1013EC00412252421A612000FFF769FFC7E72368C8
:1013FC00212252421A61200000F04CF9C3E7000090
:10140C000368244A904206D08022D205904202D032
:10141C00214A904203D1702293434A6813431D4AD8
:10142C00904212D08022D20590420ED01A4A90429D
:10143C000BD01A4A904208D0194A904205D0194A4A
:10144C00904202D0184A904203D1184A1A40CB68F5
:10145C001343802293434A69134303608B68C3622E
:10146C000B6883620B4B984208D00D4B984205D009
:10147C000C4B984202D00C4B984201D10B69036380
:10148C00012343610269134203D003690122934390
:10149C0003617047002C0140000400400020004014
:1014AC00004001400044014000480140FFFCFFFFA8
:1014BC0070B5041E26D03D23C35C002B1CD03D25EB
:1014CC0002236355210001C9FFF79AFF012346222D
:1014DC00A354083AA3540132A3540132A354013249
:1014EC00A3540132A3540132A3540132A354013248
:1014FC00A3546355002070BD3C330022C254FFF747
:10150C00ADF8DCE70120F6E730B58468034D2C40DC
:10151C001B0213430B432343836030BDFF00FFFFCB
:10152C0010B504000B003C22825C012A00D177E04C
:10153C003C220121815401320131815401688A68B5
:10154C00384802408A60196860294FD023D8402956
:10155C0057D011D8202904D00AD8002901D010293D
:10156C0004D12068FFF76AFE00202AE0012028E061
:10157C003029F6D0012024E050290AD15968DA68C4
:10158C002068FFF735FE20685021FFF757FE00203A
:10159C0017E0012015E08022520191423CD08022BC
:1015AC009201914214D0702938D199685A68DB683D
:1015BC002068FFF7A9FF2268936877210B4393609B
:1015CC0000203D230122E254013B0022E25410BDD5
:1015DC0099685A68DB682068FFF796FF2268916863
:1015EC008023DB010B4393600020EAE75968DA683B
:1015FC002068FFF70FFE20686021FFF71FFE002018
:10160C00DFE75968DA682068FFF7F2FD20684021AF
:10161C00FFF714FE0020D4E70020D2E70120D0E72A
:10162C000220D4E78800FFFF30B53C23C35C012BBC
:10163C0028D03C230122C25401330132C254036826
:10164C005C689D686E3294430A6822435A60036852
:10165C000D4A934209D08022D205934205D00B4A01
:10166C00934202D00A4A934204D1802295434A689D
:10167C002A439A603D230122C254013B0022C254EA
:10168C00002030BD0220FCE7002C0140000400408B
:10169C000040014070477047704700000D48854678
:1016AC00FFF7FAFF0C480D490D4A002302E0D4580D
:1016BC00C4500433C4188C42F9D30A4A0A4C002390
:1016CC0001E013600432A242FBD3FEF73DFDFEF7AE
:1016DC0019FFFEE700800020000000200C00002015
:1016EC004C1700080C0000209C000020FEE70000B6
:1016FC00F8B5C046F8BC08BC9E467047F8B5C04665
:08170C00F8BC08BC9E467047C2
:101714000102030405060708090A0B0C0D0E0F103D
:1017240002030405060708090A0B0C0D0E0F10101E
:10173400000000000000000001020304060708097D
:041744003101000867
:04174800050100088F
:0C174C00010000000400000000127A0000
:04000005080016A930
:00000001FF
